:020000040800F2
:10000000D8200020A9AB000809AA00080BAA000804
:100010000DAA00080FAA000811AA0008DDAB00080D
:1000200000000000000000000000000013AA00080B
:1000300015AA00080000000017AA000819AA000865
:10004000E1AB0008E5AB0008E9AB0008EDAB000848
:10005000F1AB0008F5AB0008F9AB0008FDAB0008F8
:1000600001AC000805AC000809AC00080DAC0008A4
:1000700011AC000815AC000819AC00081DAC000854
:1000800021AC000825AC000829AC00082DAC000804
:1000900031AC000835AC000839AC00083DAC0008B4
:1000A00041AC000845AC000849AC00084DAC000864
:1000B00051AC000855AC000859AC00085DAC000814
:1000C00061AC000865AC000869AC00086DAC0008C4
:1000D00071AC000875AC000879AC00087DAC000874
:1000E00081AC000885AC000889AC00088DAC000824
:1000F0001DAA000891AC000895AC000823AA0008CE
:1001000099AC00089DAC0008A1AC0008A5AC0008A3
:10011000A9AC0008ADAC0008B1AC0008B5AC000853
:10012000B9AC0008BDAC0008C1AC0008C5AC000803
:10013000C9AC000829AA0008CDAC0008D1AC000861
:10014000D5AC0008D9AC0008DDAC0008E1AC000873
:10015000E5AC0008E9AC00082FAA0008EDAC0008E7
:10016000F1AC0008F5AC0008F9AC0008FDAC0008E3
:1001700001AD000805AD000809AD00080DAD00088F
:1001800011AD000815AD000819AD00081DAD00083F
:1001900021AD000825AD000829AD00082DAD0008EF
:1001A00031AD000835AD000839AD00083DAD00089F
:1001B00041AD000845AD000849AD00084DAD00084F
:1001C00051AD000855AD000859AD00085DAD0008FF
:1001D00061AD000865AD000869AD00086DAD0008AF
:1001E00071AD000875AD000879AD00087DAD00085F
:1001F00081AD000885AD000889AD00088DAD00080F
:1002000091AD000895AD000899AD00089DAD0008BE
:10021000A1AD0008A5AD0008A9AD0008ADAD00086E
:10022000B1AD0008B5AD0008B9AD0008BDAD00081E
:10023000C1AD000881B0DFF8F81B09680143DFF8A1
:10024000F02B06E081B0DFF8A41B09680143DFF85A
:100250009C2B1160116808400090009801B0704715
:1002600000B597B002F080FF1C22002110A802F018
:1002700082FF342200F07AF8DFF8740BDFF8B41B49
:1002800008600F2002F036FD42F2107000F017FCFB
:1002900003F028F808B102F06CFF002000900190F4
:1002A00002906946DFF88C0B03F0BFFD08B102F045
:1002B00060FF602010900020119012901390149015
:1002C00015901690002210A9DFF8680B03F022FAAF
:1002D00008B102F04EFF00200390049005900690B4
:1002E00007904FF400500890002009900A900B905E
:1002F0004FF000700C9000200D900E900F9003A90D
:10030000DFF8300B03F001FE08B102F032FFDFF836
:10031000240B04F0D6F817B000BD80B58AB002F007
:1003200023FF00F022F8DFF8740BDFF8C81B00F0A1
:1003300053F808B102F01DFF0020009002906946BA
:10034000DFF8B00B03F071FD08B102F012FF00F00E
:100350003CF8002203A9DFF89C0B03F0DBF908B19D
:1003600002F007FFDFF88C0B2BE01C22002103A812
:1003700002F001BF80B58AB002F0F6FEFFF7F5FF8C
:10038000DFF8740BDFF8741B00F026F808B102F0F8
:10039000F0FE0020009002906946DFF8600B03F049
:1003A00044FD08B102F0E5FE00F00FF8082203A9B1
:1003B000DFF8480B03F0AEF908B102F0DAFEDFF81F
:1003C0003C0B04F07EF80BB000BD602003900020D1
:1003D000049005900790704708600F204860002047
:1003E000886042F21070C860002008618020886137
:1003F000084602F077BF80B5622817D067280BD077
:1004000072281DD1FFF72CFFDFF8280A02F0DFFE6B
:100410000021DFF8200A12E0FFF77FFFDFF8D40A9F
:1004200002F0D5FE0021DFF8CC0A08E0FFF7A2FFBA
:10043000DFF8C80A02F0CBFE0821DFF8C00A55E356
:1004400001BD00B593B062280BD0672804D0722894
:100450000AD100F0A1F901E000F09AF900F095F955
:1004600003E000F09DF90CE019B900200099486301
:100470000DE0042903D100200099886307E00829D2
:1004800003D100200099C86301E000F02FF813B0F9
:1004900000BD18B593B00C4662280BD0672804D075
:1004A00072280AD100F078F901E000F071F900F04B
:1004B0006CF903E000F074F90CE019B90020009920
:1004C00048630DE0042903D100200099886307E008
:1004D000082903D100200099C86301E000F006F864
:1004E000204614B0BDE8104004F062B90C2903D1D5
:1004F0000020009908647047102903D1002000995A
:100500008864704700200099C86470472DE9F04363
:1005100093B006469046642091FBF0F9622E0CD011
:10052000672E04D0722E0BD100F036F901E000F0F6
:100530002FF900F02AF9002402E000F031F9082434
:10054000002500E06D1C45451FDA002714B900980E
:10055000476313E0042C02D1009887630EE0082C57
:1005600002D10098C76309E00C2C02D100980764FF
:1005700004E0102C009814BFC7648764484604F058
:1005800017F9BF1CC82FE1DBDCE7304613B0BDE82C
:10059000F04356E72DE9F84193B000F093F80CD002
:1005A000672804D072280BD100F0F6F801E000F0C3
:1005B000EFF800F0EAF8002402E000F0F1F8082477
:1005C000002700E07F1CAF421FDAC82614B900984C
:1005D000466313E0042C02D1009886630EE0082CD9
:1005E00002D10098C66309E00C2C02D10098066481
:1005F00004E0102C009814BFC6648664404604F0E2
:10060000D7F8B61E012EE1DADCE758E02DE9F84113
:1006100093B000F057F80CD0672804D072280BD1A3
:1006200000F0BAF801E000F0B3F800F0AEF80024F2
:1006300002E000F0B5F80824002700E07F1CAF427C
:100640003DDA002614B90098466313E0042C02D169
:10065000009886630EE0082C02D10098C66309E07A
:100660000C2C02D10098066404E0102C00980CBFFA
:100670008664C664404604F09BF8B61C642EE1DB39
:10068000012EDBDB14B90098466313E0042C02D181
:10069000009886630EE0082C02D10098C66309E03A
:1006A0000C2C02D10098066404E0102C00980CBFBA
:1006B0008664C664404604F07BF8B61EE0E714B0DA
:1006C000BDE8F0811546642291FBF2F8622870477C
:1006D000F0B593B00D46164662280CD0672804D0BA
:1006E00072280BD100F058F801E000F051F800F04A
:1006F0004CF8002402E000F053F8082400270CE036
:1007000000200099C86404E0102CF9D10020009961
:100710008864284604F04CF87F1CB74233DA14B9D9
:1007200000F08AF815E0042C02D100F080F810E007
:10073000082C02D100F076F80BE00C2C02D100F06E
:100740006CF806E0102C41F2883000990CBF8864E8
:10075000C864284604F02CF81CB9002000994863AE
:10076000D7E7042C03D1002000998863D1E7082C37
:1007700003D100200099C863CBE70C2CC4D1002022
:1007800000990864C5E713B0F0BD4C2204F024B80A
:100790006846DFF8201870476846DFF8641770472E
:1007A0006846DFF858174C2204F016B830B593B0FD
:1007B00004460D46622C0BD0672C04D0722C0AD153
:1007C000FFF7EAFF01E0FFF7E3FFFFF7DEFF03E0DB
:1007D000FFF7E6FF0AE010B900F02EF815E0042854
:1007E00002D100F024F810E0082802D100F01AF835
:1007F0000BE00C2802D100F010F806E0102841F2BE
:10080000883000990CBF8864C864284603F0D0FF84
:10081000204613B0BDE8304013E641F2883000991D
:100820000864704741F288300099C863704741F20C
:10083000883000998863704741F288300099486396
:100840007047F8B5044615464FF47A7090FBF1F600
:10085000002716E054F82720C2F10102D2B200F0BE
:1008600013F806EBC6000A2190FBF1F003F0A0FF9D
:10087000012200F009F80A2096FBF0F003F098FF3F
:100880007F1CAF42E6DBF1BD4021DFF8C00C04F075
:100890008BB8F0B593B00F4662280CD0672804D00F
:1008A00072280BD1FFF778FF01E0FFF771FFFFF728
:1008B0006CFF002402E0FFF773FF082400F06AF8E1
:1008C000A81B00F061F808E0102C009814BFC66463
:1008D0008664012003F06CFFBE19AE4212DA14B92F
:1008E00000984663F5E7042C02D100988663F0E790
:1008F000082C02D10098C663EBE70C2CE4D10098D9
:100900000664E6E713B0F0BD10B50446FFF7C1FF7B
:1009100055E0F0B593B00F4662280CD0672804D09C
:1009200072280BD1FFF738FF01E0FFF731FFFFF727
:100930002CFF002402E0FFF733FF082400F02AF820
:10094000701B00F021F808E0102C009814BFC6645A
:100950008664012003F02CFFF61BB54212DA14B9AD
:1009600000984663F5E7042C02D100988663F0E70F
:10097000082C02D10098C663EBE70C2CE4D1009858
:100980000664E6E713B0F0BD07EBD7777F1090FB66
:10099000F7F770479FED901A20EE010ABDEEC00AEE
:1009A00010EE106A9FED8C0A20EE800ABDEEC00AA0
:1009B00010EE105A704710B50446FFF7AAFF204604
:1009C000BDE810403DE500B593B062280BD0672824
:1009D00004D072280AD1FFF7DFFE01E0FFF7D8FE4E
:1009E000FFF7D3FE03E0FFF7DBFE0AE011B9FFF7E4
:1009F00023FF15E0042902D1FFF719FF10E00829B1
:100A000002D1FFF70FFF0BE00C2902D1FFF705FF22
:100A100006E0102941F2883000990CBF8864C86450
:100A200013B000BD80B594B01C2202F09EFB3422AE
:100A3000002107A802F09FFBDFF8F40BDFF89C1CF5
:100A400008609F2002F056F94FF47A7000F037F8F2
:100A500002F0B0FB08B102F08CFBDFF8800C02F072
:100A600041FC08B102F085FB60200090002001905D
:100A700002F03CF90590069000226946DFF85C0C14
:100A800002F048FE08B102F074FB002007900890C5
:100A900009900A900B904FF400500C9000200D909C
:100AA000139007A9DFF8340C03F02FFA08B102F015
:100AB00060FBDFF8280C03F004FD15B000BDC86032
:100AC0000020086148618020886108467047DFF88F
:100AD000001D91FBF0F0704780B5FFF7A3FFDFF832
:100AE000FC0B02F074FB0021DFF8F00BBDE80440C2
:100AF00002F005BC0020DFF8E41B0968486370477A
:100B00000021DFF8D82B8FE12DE9F041804600F07D
:100B1000A3FB074600F058FB054600260BE0052422
:100B200000F09DFB00F0FDFB00F0A2FB641EF7D17E
:100B300000F0D8FE761C4645F1DB00F0FBBD2DE948
:100B4000F041804600F0C6FB074600F0C8FB0546B2
:100B500000260FE0032400F059FC00F035F800F007
:100B60002AF84FF47A70FFF7CBFF641EF3D100F040
:100B7000B9FE761C4645EDDB00F0DCBDF8B501F0B2
:100B8000B9F9054640F6CA00FFF7A1FF064600275F
:100B90000EE000F010F800F037FD00F015F801F05D
:100BA0008DF906EBD67000F00FF800F09BFE7F1C6D
:100BB000A742EEDB25E0DFF8240B0068C562DFF812
:100BC0001C0BC56005EBD5704010DFF8101B0968E1
:100BD0004863FA2003F0ECBD00401C46F8B505461A
:100BE00000260CE000F082FE052400F097F8643740
:100BF00000F07EFE641EF8D100F074FE761CAE425A
:100C0000F0DBBDE8F14075E7F8B5054600260EE0DB
:100C10004FF4FA6700F06CFE052400F07FF8643FA3
:100C200000F066FE641EF8D100F05CFE761CAE4259
:100C3000EEDBE6E770B504464FF47A70FFF747FF46
:100C4000054600260AE000F06CFB01F008FB4FF4BB
:100C50007A7003F0ADFD00F045FE761CA642F2DB93
:100C6000BDE8704046E7F8B505464FF4FA70FFF767
:100C70002EFF01F026FB09E0022401F013FC01F035
:100C8000F3FA641EF9D100F02DFE7F1CAF42F3DBB6
:100C9000F1BDF8B500F097FA01F013FB0BE0032467
:100CA00006EBD67001F04AFB01F0DEFA641EF7D1C4
:100CB00000F018FE7F1CAF42F1DBA2E7F8B5054655
:100CC00000F0CAFA064601F0CFFA00F097FC0027C0
:100CD0000BE0042406EBD67001F047F801F011F99F
:100CE000641EF7D100F0FEFD7F1CAF42F1DB88E708
:100CF000F8B5054601F0B8FA00260CE000F0F6FD64
:100D0000032400F00BF8FA3700F0F2FD641EF8D16E
:100D100000F0E8FD761CAE42F0DB72E7DFF8BC19AC
:100D20000968C862DFF8B419C86000EBD0704010E1
:100D300009684863C82003F03BBD000078B587B060
:100D4000044601A8DFF8381C182203F045FD2046B0
:100D500003F044FE03283BD1A578303D0222214612
:100D6000684603F045FE00240026022201A800EB9D
:100D70004601684603F04BFE18B1761C0C2EF4DBDE
:100D80002FE03446032C2CDB0C2000FB05450B3DEB
:100D9000313D00EE105AB8EEC00AF2EE080A80EEBD
:100DA000200A10EE100A03F047FE41EC110B9FEDF4
:100DB000BC0B03F068FE53EC102B0020DFF8581C2E
:100DC00003F06AFE03F03EFF00EE100A08B070BDAB
:100DD000022803D16578303D0122C0E79FEDD50A96
:100DE000F4E70C2000FB05456D1CD1E7A00C024682
:100DF000002C0140B5EE400AF1EE10FA08BFFFF7F3
:100E00007FBEDFEDB20A80EE800ABDEEC00A10EEB2
:100E1000101ADFF8C8281268D162DFF8C028D16044
:100E200001EBD171491000BF1268516303F0C0BCDF
:100E30008C0C0246A00E0020F8B52DED028B044666
:100E40000D461646DFEDAF0A80EE208A01F00CFA5F
:100E500000271EE005EB870090ED000A04EB8700F9
:100E6000D0ED000AC0EE880A9FEDB31A60EE810A49
:100E7000FDEEE00A10EE900AFFF7BCFF9FEDC50AF9
:100E800080EE080ABDEEC00A10EE100AFFF738FE29
:100E90007F1CB742DEDBBDEC028BF1BD00080040D9
:100EA00038B52DED028BADF57C7D04460846B0EEDD
:100EB000408A002500956A46CEA10AE0FFF73EFF72
:100EC00001A800EB850080ED000A6D1C6A46C9A1EF
:100ED000002003F0EBFE0028F0D12A46B0EE480ACD
:100EE00001A92046FFF7A8FF0DF57C7DBDEC028B24
:100EF00031BD0000EC0E002000040040380F00203F
:100F0000A00E00202DE9F04100F093F800F0E0F889
:100F1000074600254AE000F071FB00F0B9FE9FEDA6
:100F2000850A01F0A4F901F093F9DFEDB30A9FED12
:100F3000B30A01F09CF900F067FB01F090F9DFEDD6
:100F4000B00A9FEDAD0A01F092F901F081F9DFEDF1
:100F5000AD0A9FEDAB0A01F08AF900F055FB01F0F4
:100F60007EF9DFEDA90A9FEDA70A01F080F901F0F3
:100F70006FF9DFEDA60A9FEDA40A01F078F900F001
:100F800043FB01F06CF9DFEDBE0A9FEDA00A01F012
:100F90006EF901F05DF9DFEDBB0A9FEDB90AC821DA
:100FA0002046FFF7B1FC00F09DFC6D1C4545B2DB0F
:100FB000C0E30000EC0E00202DE9F04100F039F80C
:100FC00000F086F80746002530E000F01DFB01F038
:100FD00046F9DFEDAD0A9FEDAD0AC82101F028F812
:100FE00001F036F9DFEDAA0A9FEDA70AC82101F04A
:100FF0001FF800F009FB01F032F9DFEDCF0A9FED99
:10100000A40AC82101F014F800F04EF89FEDCA0AB6
:10101000C82101F00DF800F0A7F800F08FF800F0FB
:1010200073F800F059F800F05DFC6D1C4545CCDB11
:1010300080E30446884640F6C41048E52DE9F041B7
:10104000FFF7F7FF00F044F80746002524E000F022
:10105000D5FA00F027FE01F00AF900F0D7F900F008
:101060004FFA9FEDCC0A01F002F900F0AFFF9FEDBF
:10107000CA0A01F0FCF800F017F89FEDC80A01F069
:10108000F6F800F071F800F059F800F03DF800F0C3
:1010900023F800F027FC6D1C4545D8DB4AE300002F
:1010A0000000000000000040DFF830060068C76262
:1010B000DFF82806C76007EBD7704010DFF81C1672
:1010C00009684863DFEDC00A7047000000247449D6
:1010D00006464FF4FA60FAE4DFF800060068C762DB
:1010E000DFF8F805C76007EBD7704010DFF8EC15A4
:1010F00009684863DFED0F0A9FEDA60AC821204664
:1011000059E4000000007042DFF8D0050068C662B4
:10111000DFF8C805C66006EBD6704010DFF8BC15D6
:1011200009684863DFED9B0A9FED9B0AC8212046B2
:10113000FFF7EFBB0000000000007A44DFF89C05D9
:101140000068C762DFF89405C76007EBD7704010EE
:10115000DFF8881509684863DFED8F0A9FED8F0A75
:10116000C8212046FFF7D5BBDFF870050068C662CE
:10117000DFF86805C66006EBD6704010DFF85C1536
:1011800009684863DFED850A9FED8F0AC821204674
:10119000FFF7BFBB000048422DE9F843814600F04D
:1011A0005AF800F010F80746002609E0042400F081
:1011B0000EF800F054F8641EF9D100F093FB761C91
:1011C0004645F3DB44E005464FF4FA607FE4DFF880
:1011D0000C050068C562DFF80405C56005EBD57035
:1011E0004010DFF8F81409684863C8214846FFF743
:1011F000DDBA0000200000000AD7A33D0AD7233D36
:101200008FC2F53D0AD7233ECDCC4C3E8FC2753EF2
:101210002DE9F8438046894600F01EF8FFF7D3FF1A
:101220000646002712E04046FFF7CDFB042400F0FD
:1012300078F800F01DF800F0E7F900F019F8641EE6
:10124000F5D100F001FB00F04DFB7F1C4F45EADBC0
:10125000BDE8F1434EE4884640F6C41037E4DFF8B9
:101260007C040068C762DFF87404C76007EBD770BE
:101270004010DFF8681409684863C82003F098BA82
:10128000295C8F3E0AD7A33EB81E853E9A99993EA7
:10129000AE47613E2DE9F84300F01AF800F01EF861
:1012A0000746002611E0032400F07AF800F0AEF8BB
:1012B00001F066F8FA214846FFF726FB00F012FB22
:1012C000641EF1D100F00EFB761C4645EBDBBFE758
:1012D0008146884640F2D660FFF7F9BB054640F2EA
:1012E000DC50FFF7F4BB2DE9F843FFF7F1FFFFF700
:1012F000F5FF0746002611E0032400F012F801F084
:101300006FF8FA214846FFF704FB00F02FF800F0D1
:10131000E9FA641EF1D100F0E5FA761C4645EBDBF4
:1013200096E7DFF8B8030068C562DFF8B003C56070
:1013300005EBD57070470000EC51383E2DE9F843BD
:10134000FFF7C6FFFFF7CAFF074600260BE003249E
:1013500000F026F800F00AF800F0C4FA641EF7D195
:1013600000F0C0FA761C4645F1DB71E7DB48006807
:10137000C762DA48C76007EBD7704010D7490968E1
:101380004863DFEDAA0A9FEDC00AFA214846FFF73D
:1013900012BB00000AD7A33C8FC2753DCDCCCC3D1B
:1013A000CE480068C562CD48C56005EBD5704010D9
:1013B000CA4909684863DFEDB40A9FED9C0AFA2127
:1013C0004846FFF766BA0000295C0F3E2DE9F84356
:1013D000FFF77EFFFFF782FF0746002613E0032496
:1013E000FFF79FFF00F01AF8FFF7E0F900F00EF8A2
:1013F00000F014F8FFF74DF800F074FA641EEFD116
:1014000000F070FA761C4645E9DB21E7B348006836
:10141000C762B248C76007EBD77070474010AF494A
:1014200009684863FA21484670472DE9F843804629
:101430008946FFF74FFFFFF751FF0646002712E0EE
:101440004046FFF7C0FA0324FFF7B5FB00F0DCF8D5
:10145000FFF7BAFB00F046FA641EF5D100F0F4F98C
:1014600000F040FA7F1C4F45EADBF1E62DE9F04140
:1014700000F06EF800F072F80746002510E000F06A
:1014800073F800F085F800F0B9F800F0E6FEDFED43
:10149000AB0A00F055F8FFF737FA00F023FA6D1C9D
:1014A0004545ECDB46E100002DE9F04100F050F845
:1014B00000F054F8074600251FE000F0A5F800F002
:1014C0001FF89FED9E0A4FF4967100F0B1FD00F0F9
:1014D000BFFEDFEDBD0A9FEDBD0A4FF4967100F02F
:1014E000A7FD00F0CBFF9FEDB80A4FF496712046A0
:1014F000FFF761FA00F0F6F96D1C4545DDDB19E1F7
:101500004010764909684863DFEDB00A70472DE95D
:10151000F04100F01DF800F021F8074600250CE02E
:1015200000F022F800F034F800F0A8FF00F008F80E
:10153000FFF741FA00F0D6F96D1C4545F0DBF9E004
:101540009FEDA20A4FF4967120467047001C02429C
:101550000446884640F2D660FFF7B9BA064640F620
:10156000CA00FFF7B4BA00005C480068C6625B4876
:10157000C66006EBD6704010584909684863DFED35
:10158000920A9FED2A0A4FF496712046FFF781B91F
:1015900052480068C7625148C76007EBD7704010D7
:1015A0004E4909684863DFED890A9FED870A4FF4C9
:1015B00096712046FFF76DB92DE9F041FFF7C8FF9E
:1015C000FFF7CCFF0746002515E000F01DF800F0FE
:1015D00023F800F03DFE4FF496712046FEF759FFC8
:1015E00000F00CF807EBD77000F016F800F019FDCA
:1015F00000F078F96D1C4545E7DB9BE03748006853
:10160000C6623648C660704734480068C6623348D0
:10161000C66006EBD67070474010304909684863D1
:101620004FF496712046FFF7C1B80000000000009B
:10163000004401402DE9F041FFF78AFFFFF78EFFDC
:101640000746002513E02046FFF7BDF9FFF7DCFF52
:1016500000F012F800F077FD00F00CF8FFF7CEFF75
:1016600000F008F800F0DDFC00F03CF96D1C454589
:10167000E9DB5FE007EBD770401018490968486361
:101680004FF4967003F094B8CDCC4C3D2DE9F04169
:101690002DED028B00F05EF91DE000F027F99FEDC3
:1016A000B78A052400F05AF900F0B8F903F0CAFA35
:1016B00000F098F800F06EFA00F0B0F903F0C2FA0A
:1016C00000F03EF800F014F9641EEBD100F066FA69
:1016D00000F008F96D1C4545DFDB29E0840F002090
:1016E0002DE9F0412DED028B00F034F91DE000F002
:1016F000FDF89FEDC88A052400F030F900F083F969
:1017000003F0A0FA00F066F800F044FA00F07BF96C
:1017100003F098FA00F014F800F0EAF8641EEBD138
:1017200000F03CFA00F0DEF86D1C4545DFDB00BF41
:10173000BDEC028BBDE8F041FFF7DCB9EC51B83DE0
:1017400008EE100A643770472DE9F0412DED028B49
:1017500000F000F934E000F0C9F89FED888A032416
:1017600000F0FCF800F05AF903F06CFA00F03AF8D7
:1017700000F010FA00F052F903F064FAFFF7E0FF0E
:1017800000F0B6F8641EEBD19FEDA78A022400F0AA
:10179000E5F800F038F903F055FA00F01BF800F016
:1017A000F9F900F030F903F04DFAFFF7C9FF00F046
:1017B0009FF8641EEBD100F0F1F900F093F86D1C76
:1017C0004545C8DBB4E700008FC2F53C8FC2753DCC
:1017D00040420F0000EE900AB0EE480AC8213046A1
:1017E000FFF797B800EE900AB0EE480AC8213046DD
:1017F000FFF74FB82DE9F84F00F04CF900F055F91C
:1018000000F043F900F04CF98246FFF768FD054609
:101810004FF0000B15E0FFF784FD00F068F900F0D1
:1018200049F900F05BF9FFF7F1FD00F04EF9FFF721
:10183000E5FE00F05AF900F007F800F053F80BF15C
:10184000010BCB45E7DB1CE14046FEF7FABD2DE975
:10185000F84380468946002717E040F2DC552846C9
:10186000FFF735F906464046FFF7ADF8052400F0CE
:101870002DFB64352846FFF72AF90646641EF6D18B
:10188000FFF7E2FF00F02EF87F1C4F45E5DBDFE4B9
:101890002DE9F0412DED028B00F05CF81FE040F2E5
:1018A0006C7700F025F89FED618A052400F056F86A
:1018B00000F0B4F803F0C6F9FFF794FF00F06AF9FE
:1018C00000F0ACF803F0BEF900F040F800F010F8BA
:1018D000641EEBD100F062F900F004F86D1C454580
:1018E000DDDB25E740F2EE20FFF70AB940F2DC57D6
:1018F0003846FFF7ECB800002DE9F0412DED028BE2
:1019000000F028F81FE040F26C77FFF7F1FF9FED41
:10191000418A052400F022F800F075F803F092F9EE
:10192000FFF758FF00F036F900F06DF803F08AF980
:1019300000F00CF8FFF7DCFF641EEBD100F02EF98D
:10194000FFF7D0FF6D1C4545DDDBF1E608EE100A20
:10195000643F70470646884600257047DFF86C1BD9
:101960000968C862DFF8641BC86000EBD0704010E3
:101970000968486318EE100A03F05EB80000000022
:1019800068AB00082DE9F0412DED028BFFF7E2FF77
:1019900036E040F26C77FFF7ABFF9FED248A03241B
:1019A000FFF7DCFF00F03AF803F04CF9FFF71AFFFD
:1019B00000F0F0F800F032F803F044F9FFF7C6FF4A
:1019C000FFF796FF641EEBD19FED178A0224FFF705
:1019D000C5FF00F018F803F035F9FFF7FBFE00F043
:1019E000D9F800F010F803F02DF9FFF7AFFFFFF77B
:1019F0007FFF641EEBD100F0D1F8FFF773FF6D1C81
:101A00004545C6DB94E6DFF8C82ADFF8C83A03F09C
:101A10006BB90000CDCCCC3D00807B40DFF8B02A14
:101A2000DFF8B43A03F060B90AD7233D00000000A4
:101A30002DE9F84F00F02EF800F037F800F025F807
:101A400000F02EF88246FFF74AFC05464FF0000BE7
:101A500015E0FFF7D9FD00F04AF8FFF7D7FC00F0DA
:101A600034F800F03BF800F025F8FFF75AFC00F0DE
:101A70003EF8FFF7E9FEFFF735FF0BF1010BCB4511
:101A8000E7DBBDE8F14FFFF735B8074640F2A46049
:101A9000FFF71DB88046894640F26C70FFF717B813
:101AA00004464FF4C860FFF712B806464FF4E160F1
:101AB000FFF70DB8DFF8140A0068C0F82CA0DFF8B3
:101AC0000C0AC0F80CA00AEBDA704010DFF8FC1921
:101AD00009684863C8214046FEF7DBBCDFF8EC0923
:101AE0000068C462DFF8E409C46004EBD4704010FD
:101AF000DFF8D81909684863C8214046FEF756BE8A
:101B0000F8B50D46002618E040F26C77FFF7F0FEBE
:101B10000524DFF8B8190968C862DFF8B019C86091
:101B200000EBD070401009684863643FFFF7E0FEA7
:101B3000641EEED1FFF7D6FE761CAE42E4DBFFF763
:101B400060B800002DE9F0412DED028B00F062F845
:101B500000F056F81BE09FEDB38A042400F0FBFA76
:101B6000FFF75CFF03F06EF800F044F8FFF73FFE6C
:101B700000F010F8FFF752FF03F064F800F0BFF92F
:101B8000641EEBD100F00AF8FFF7ACFE6D1C454572
:101B9000E1DBCDE518EE100A02F04EBF3046FEF74D
:101BA00050BC00002DE9F0412DED028B00F032F821
:101BB00000F026F81BE09FEDCC8A042400F0CBFA5D
:101BC000FFF721FF03F03EF800F014F8FFF707FEDF
:101BD000FFF7E0FFFFF717FF03F034F800F08FF98D
:101BE000641EEBD1FFF7DAFFFFF77CFE6D1C454565
:101BF000E1DB9DE500EE900AB0EE480A64217047F3
:101C00000746DFF8C8080068C762DFF8C008C76089
:101C1000002570470646884640F6C410FEF757BFB9
:101C2000F8B500F06AF800F04CFB2CE000F03AF850
:101C3000642100F01DFB00F064F900F029F89FED2D
:101C4000AB0A642100F014FB00F05BF906EBD670E0
:101C500000F005FBDFEDA50A9FEDA50A642100F069
:101C6000E7F900F04EF906EBD67000F00FFC9FED9F
:101C70009F0A642100F0DCF900F043F900F0D1F98B
:101C8000FFF730FE7F1CAF42D0DBFEF7BABF00008B
:101C900006EBD6704010DFF8341809684863DFEDB2
:101CA000940A704706EBD6704010DFF820180968D8
:101CB0004863DFED8E0A9FED5B0A7047F8B500F0D0
:101CC0001CF800F0FEFA14E000F028F800F019F912
:101CD00000F019F800F015F900F020F800F011F903
:101CE00000F011F800F00DF900F09BF9FFF7FAFD94
:101CF0007F1CAF42E8DBFEF784BF04460D4640F68A
:101D0000C410FEF7E4BE06EBD6704010DFF8BC1737
:101D10000968486364212046FEF7BBBB06EBD6701A
:101D20004010DFF8A8170968486364212046FEF7D1
:101D30003DBD2DE9F0410546FFF78DFA00F0F4FABC
:101D400010E02846FEF73FFE042407EBD77000F0B2
:101D50000CF800F0D6F8641EF7D100F0AEF9FFF7EA
:101D6000C1FD761C4645ECDBE4E44010DFF85C176F
:101D700009684863642002F01BBD00002DE9F041B2
:101D80002DED028BFFF7E6FD1EE0FFF7AFFD9FEDA7
:101D9000258A0324FFF7E2FDFFF740FE02F052FF21
:101DA000FFF720FDFFF7F6FEFFF738FE02F04AFFCF
:101DB00008EE100AFA37FFF79BFD641EEAD1FFF721
:101DC000EDFEFFF78FFD6D1C4545DEDBB0E4000046
:101DD0002DE9F0412DED028BFFF7BCFD1EE0FFF772
:101DE00085FD9FEDA18A0324FFF7B8FDFFF70BFEE9
:101DF00002F028FFFFF7EEFCFFF7CCFEFFF703FE33
:101E000002F020FF08EE100AFA37FFF771FD641E9A
:101E1000EAD1FFF7C3FEFFF765FD6D1C4545DEDB2C
:101E200086E40000000000002DE9F8438146884662
:101E300000273FE0FFF753FA00F05CF8FFF7C3F923
:101E40000646DFF888060068C462DFF88006C460D2
:101E500004EBD474641000684463DFED240A9FED42
:101E6000C30AC8214846FEF714FD00F04AF800F006
:101E700025F805EBD5756D1000684563DFED1C0A8C
:101E80009FED1A0AC8214846FEF703FD00F039F815
:101E900000F01CF8DFEDB50A9FED150AC821484691
:101EA000FEF737FD00F02DF84846FEF7CAFAFFF7B7
:101EB00019FD7F1C4745BDDBFFF7CAB9DFF80C06EB
:101EC0000068C562DFF80406C5607047DFF8FC05EE
:101ED0000068C662DFF8F405C66006EBD6767610B9
:101EE00000684663704700000AD7A33D0AD7A33CA9
:101EF0000AD7233D044640F2D660FEF7E8BD08EE5F
:101F0000100A0A20FEF7FCBD2DE9F84381468846F9
:101F1000FFF7E5F90746FFF7DDF9FFF7D9F80546C2
:101F2000002417E0FFF772FAFFF75AF9FFF7E9FF0D
:101F3000FFF76AFB00F093F9C8214846FEF7A9FABB
:101F4000FFF7DFFFFFF743F94846FEF77AFAFFF79E
:101F5000C9FC641C4445E5DBFFF77AB92DE9F04183
:101F600005468846002715E02846FEF72CFD40F27E
:101F7000DC563046FEF7ABFD0324FEF7CFFEFA3603
:101F80003046FEF7A4FD641EF7D100F096F8FFF787
:101F9000A9FC7F1C4745E7DBFFF7CCBBF8B500F099
:101FA00065F8064600270CE000F010F89FED6F0A78
:101FB0004FF47A7100F05CF900F033F8FFF792FC0F
:101FC0007F1CAF42F0DBFEF71CBE0000DFF8FC0414
:101FD0000068C662DFF8F404C66006EBD6704010F5
:101FE000DFF8E81409684863DFEDBF0A70470000B6
:101FF000F8B500F03BF8064600270EE0FFF704FBBB
:1020000000F044FA9FEDB80A4FF47A7100F010F82E
:1020100000F007F8FFF766FC7F1CAF42EEDBFEF72F
:10202000F0BD2046FEF70DBA9FEDC30A4FF4FA71DA
:102030002046FEF76EBC0000F8B500F017F8064623
:1020400000270CE0FFF7DAFA00F0A4F9DFED470A09
:10205000FFF7EAFFFFF7E5FFFFF744FC7F1CAF4205
:10206000F0DBFEF7CEBD00008FC2753D04460D4685
:102070004FF47A70FEF72BBD2DE9F04105468846F6
:102080004FF47A70FEF723FD0746002611E000F0BA
:10209000DFF8052464212846FEF788FB64212846E2
:1020A000FEF7F7F9641EF5D100F007F8FFF71AFC08
:1020B000761C4645EBDBFFF73DBB2846FEF7C1B972
:1020C000F8B5FFF7D3FF064600270BE02046FEF7E2
:1020D0007AFCFFF799FA00F0C2F8FFF7A2FFFFF7CA
:1020E00001FC7F1CAF42F1DBFEF78BBD2DE9F04117
:1020F0002DED028B00F06FF800F024F89FED1B8AA5
:1021000000251BE0032400F026F8FFF787FC02F00F
:1021100099FD00F059F8FFF76AFB00F0A5F8FFF70A
:1021200039FDFFF77BFC02F08DFD08EE100A641EFE
:10213000E9D1FFF733FDFFF7D5FB6D1C4545E1DB2A
:10214000FFF7F6BA0746DFF884030068C762DFF8D6
:102150007C03C760704707EBD7704010DFF86C1343
:102160000968486318EE100A02F066BC000000001F
:102170002DE9F0412DED028B00F02DF8FFF7E2FF85
:102180009FEDC68A00251BE00324FFF7E4FFFFF75D
:102190003AFC02F057FD00F017F8FFF720FB00F0C3
:1021A00063F8FFF7F7FCFFF72EFC02F04BFD08EE9B
:1021B000100A641EE9D1FFF7F1FCFFF793FB6D1CD9
:1021C0004545E1DBFFF7B4BA00EE900AB0EE480AED
:1021D0004FF4A5717047064688464FF4FA60FEF743
:1021E00076BC0000F8B500F066F800F06AF82BE065
:1021F00006EBD67000F033F8DFEDA90A9FEDAF0AC9
:102200004FF4A57100F034F800F02EF806EBD6700C
:1022100000F025F8DFEDAA0A9FEDA10A4FF4A571A1
:1022200000F026F800F020F806EBD67000F02EF94A
:102230009FEDA30A4FF4A5712046FEF7BCFBFFF704
:10224000F0FEFFF74FFB7F1CAF42D1DBFEF7D9BC9E
:102250009E480068C7629D48C76007EBD770401072
:102260009A490968486370476420FEF749BCC82151
:102270002046FEF70EBBF8B500F01DF800F021F87F
:1022800015E000F026F8FFF7EFFF06EBD670FFF73A
:10229000E6FF4FF4A5712046FEF7FBF8FFF7E4FFD9
:1022A00000F017F8FFF7BDFEFFF71CFB7F1CAF42E5
:1022B000E7DBFEF7A6BC04460D464FF4FA60FEF7D6
:1022C00006BC064681480068C6628048C660002792
:1022D000704706EBD67040107C49096848634FF49C
:1022E000A5712046FEF762BACDCCCC3D2DE9F04178
:1022F00005468846FEF768FF00F016F810E028460D
:10230000FEF761FB032407EBD77000F017F8FFF727
:10231000ABFF641EF7D1FFF7D0FEFFF7E3FA761CA0
:102320004645ECDBFFF706BA074668480068C76217
:102330006648C76000267047CDCC4C3D40106349CD
:10234000096848634FF4A57002F032BAF8B500F09E
:1023500062F8FFF7B6FF0FE000F01CF8FFF784FF0C
:1023600006EBD67000F00CF84FF4FA712046FEF739
:10237000CBFAFFF7B7FA7F1CAF42EDDBF1BD0000EF
:102380004010524909684863DFED4E0A9FED4E0A3E
:102390007047000006EBD67040104C49096848634E
:1023A000DFED490A9FED450A4FF4FA712046FEF72A
:1023B00070BAF8B500F02FF8FFF783FF0CE006EBDA
:1023C000D67000F00DF8FFF731FEFFF74DFF00F07B
:1023D00029F8FFF787FA7F1CAF42F0DBF1BD000060
:1023E00040103A4909684863DFED370A9FED350A26
:1023F0007047F8B500F00FF8FFF763FF08E0FFF74C
:10240000C9FFFFF731FF00F00DF8FFF76BFA7F1CF3
:10241000AF42F4DBF1BD04460D464FF4FA70FEF70F
:1024200056BB000006EBD670401028490968486387
:10243000DFED220A9FED240A4FF4FA712046FEF7E1
:10244000BABAF8B5FFF7E7FFFFF73BFF13E006EB7B
:10245000D670FFF704FF4FF4FA712046FEF7A6F995
:10246000FFF702FF06EBD67000F010F8FFF7DCFD77
:10247000FFF738FA7F1CAF42E9DBF1BD1348006873
:10248000C6621248C66007EBD77000BF40100F4904
:1024900009684863DFED090A704700008FC2753D87
:1024A000022B073D06EBD6704010084909684863C7
:1024B0004FF4FA7002F07CB9000000000000000048
:1024C000022B873DCDCCCC3DCDCC4C3D840F0020A4
:1024D0007B14AE47E17A94BFE17A943F38B50C465D
:1024E00000F096FADFF8B80B4078DFF8B42B1278DA
:1024F000612A1CD01AD3632A21D01CD3652A26D086
:1025000021D3672A2BD026D3692A30D02BD36B2A2C
:1025100035D030D36D2A3CD036D36F2A43D03DD34B
:10252000712A61D049D3722A00F09F8059E208468F
:10253000FEF7EAFA55E20846FEF701FB51E20846CB
:10254000FEF71CFB4DE20846FEF748FB49E2084651
:10255000FEF75AFB45E20846FEF76CFB41E20846EF
:10256000FEF781FB3DE20846FEF793FB39E20846A1
:10257000FEF7A4FB35E20846FEF7BAFB31E200F0B5
:1025800036FAFDF7C3FF2CE200F031FAFEF702F84D
:1025900027E200F02CFAFEF739F822E200F027FAE1
:1025A000FEF796F81DE2DFF8F81ACA78897801EB91
:1025B000022189B2FEF7FAF813E200F029FA0320AB
:1025C0000AE0DFF8DC2A125C303ADFF8D83A03EB95
:1025D000800343F80C2C401CA042F2DBE21EDFF823
:1025E000C40AFEF72EF9FCE100F012FA00EE101A10
:1025F000E01E072190FBF1F0A4EB8005042D06DB23
:10260000EA1EDFF8A41ADFF8A40A02F0E5F828466B
:10261000DFF89C2A1FE0DFF8881A095C8DF80010AB
:10262000DFF87C1A014449788DF80110DFF8701A40
:10263000014489788DF80210DFF8641A0144C978E2
:102640008DF80310411B4B1001EB937121F0030136
:10265000009B5350001DA042DDDBB8EEC00ADFF83E
:102660004C1A1046FEF71CFCBBE1DFF8340A407838
:102670006128DFF82C0A27D18078612804D100F086
:10268000E5F9FEF73FFCACE100F0DBF904D100F026
:10269000DDF9FEF791FCA4E100F0CEF904D100F0E1
:1026A000D5F9FEF7CBFC9CE100F0C1F904D100F0B4
:1026B000CDF9FEF771FD94E100F0B4F9FBD100F023
:1026C000C5F9FEF7A5FD8CE140786228DFF8D00956
:1026D00027D18078612804D100F0B8F9FEF7DAFD3F
:1026E0007FE100F0AEF904D100F0B0F9FEF7FBFD98
:1026F00077E100F0A1F904D100F0A8F9FEF71EFE81
:102700006FE100F094F904D100F0A0F9FEF75EFE4D
:1027100067E100F087F9FBD100F098F9FEF785FE3C
:102720005FE140786328DFF8780927D18078612855
:1027300004D100F08BF9FEF799FE52E100F081F927
:1027400004D100F083F9FEF7AFFE4AE100F074F91E
:1027500004D100F07BF9FEF7DAFE42E100F067F900
:1027600004D100F073F9FEF727FF3AE100F05AF9BF
:10277000FBD100F06BF9FEF75DFF32E14078642891
:10278000DFF81C0927D18078612804D100F05EF9B8
:10279000FEF77CFF25E100F054F904D100F056F972
:1027A000FEF79EFF1DE100F047F904D100F04EF95D
:1027B000FEF7CAFF15E100F03AF904D100F046F93E
:1027C000FFF718F80DE100F02DF9FBD100F03EF90C
:1027D000FFF73DF805E140786528DFF8C40827D108
:1027E0008078612804D100F031F9FFF751F8F8E062
:1027F00000F027F904D100F029F9FFF77DF8F0E0A7
:1028000000F01AF904D100F021F9FFF7BBF8E8E075
:1028100000F00DF904D100F019F9FFF709F9E0E033
:1028200000F000F9FBD100F011F9FFF769F9D8E0E9
:1028300040786628DFF8680827D18078612804D1BD
:1028400000F004F9FFF7AAFBCBE000F0FAF804D19E
:1028500000F0FCF8FFF7CCFBC3E000F0EDF804D18A
:1028600000F0F4F8FFF7E8FBBBE000F0E0F804D17B
:1028700000F0ECF8FFF700FCB3E000F0D3F8FBD178
:1028800000F0E4F8FFF71CFCABE040786728DFF8C5
:10289000100820D18078612804D100F0D7F8FFF724
:1028A00055FD9EE000F0CDF804D100F0CFF8FFF721
:1028B00080FD96E000F0C0F804D100F0C7F8FFF703
:1028C00098FD8EE000F0B3F840F0848000F0BEF890
:1028D000FFF7B7FD85E040786828DFF8C40727D107
:1028E0008078612804D100F0B1F8FFF7FFFB78E0B1
:1028F00000F0A7F804D100F0A9F8FFF739FC70E068
:1029000000F09AF804D100F0A1F8FFF76BFC68E042
:1029100000F08DF804D100F099F8FFF7ACFC60E00E
:1029200000F080F85DD100F091F8FFF7DFFC58E08F
:1029300040786928DFF8680727D18078612804D1BA
:1029400000F084F8FFF7FEF84BE000F07AF804D1CD
:1029500000F07CF8FFF726F943E000F06DF804D1B1
:1029600000F074F8FFF75CF93BE000F060F804D188
:1029700000F06CF8FFF7A2F933E000F053F830D123
:1029800000F064F8FFF7D5F92BE040786A2828D1E9
:10299000DFF80C078078612804D100F057F8FFF7C2
:1029A000EDF91EE000F04DF804D100F04FF8FFF70C
:1029B0000FFA16E000F040F804D100F047F8FFF7F6
:1029C00033FA0EE000F033F804D100F03FF8FFF7DF
:1029D0009BFA06E000F026F803D100F037F8FFF785
:1029E000BDFA00F06CF8BDE8384002F00CBBDFF82F
:1029F000B0164979DFF8A826127902EB012292B2CB
:102A0000DFF89C16CB78897801EB032189B27047F7
:102A1000DFF88C068078DFF88816497801EB002112
:102A200089B27047DFF87806807865287047DFF84C
:102A30007006807864287047DFF864068078632821
:102A40007047DFF85C068078622870470121DFF864
:102A50005006C078704780B502F02AFB00F036F8C7
:102A600000F079F800F05FFA00F07EF800F0A9F8C5
:102A700000F0C4F800F0F9F800F040F900F095F922
:102A800000F0CAF900F0E4F900F011FA00F033FAAE
:102A900000F0DFF87220FDF7AEFC6720FDF7ABFC1D
:102AA0006220FDF7A8FC052264217220FDF710FECC
:102AB000FEF712F800F003F802F0A5FAFEE74FF473
:102AC0007A72DFF8DC15DFF8EC05704780B59EB050
:102AD0006022002106A800F04EFB182200F045FB02
:102AE0004FF4403002F00CFB08B100F042FB302004
:102AF00006904FF48050119001200D9010200E9000
:102B00004FF080400F90022014900120159000207B
:102B100017900120169050201890022019901A90BA
:102B20001B9000201C901D9006A802F085FB08B1A8
:102B300000F01FFB1F20009003200190002000F0F8
:102B4000D5F805900421684602F0B0FF08B100F006
:102B500010FB1FB000BD80B502F05EFB022002F04A
:102B60001DFB00B147E001BD80B5DFF84C05DFF883
:102B70004C1508600120886000200873012081F84E
:102B800024000020C862042008630120486308462E
:102B900003F056FA08B100F0ECFA0020DFF8201537
:102BA00008604860402088600220C86000204861BA
:102BB000087681F8200081F8340048668866C86687
:102BC00001BD80B5DFF8FC04DFF8FC1400F030F83C
:102BD00008B100F0CEFA0021DFF8EC0403F054FB5A
:102BE00008B100F0C6FA0021DFF8DC0403F06CFB4A
:102BF00000B100E001BDBDE80140BAE280B5DFF8F8
:102C0000CC04DFF8CC1400F013F808B100F0B1FAEE
:102C10000021DFF8BC0403F037FB08B100F0A9FA8B
:102C20000021DFF8AC0403F04FFB00B1E3E701BD86
:102C30000860DFF8A0044860002088600120C860B8
:102C40000020086148618861C8610862084603F095
:102C50006BBB80B5002003F0CDFB08B100F089FA12
:102C600003F0D6FB00B1C6E701BD80B588B000F027
:102C700097F8082200F079FADFF85C04DFF85C14BA
:102C80000860012000F036F84FF00070C86018208E
:102C90000861012000F077F8022000F07AF80A209D
:102CA00008630020486388636420C863084603F013
:102CB000C2FB08B100F05DFA012000F017F84FF0F8
:102CC00001100590DFF81804069041F2883202A93D
:102CD000DFF8080403F085FC08B100F04AFA002090
:102CE000009001906946DFF8F40345E002900390FC
:102CF00004907047486000208860704780B588B0B5
:102D000000F04EF8082200F030FADFF8D803DFF8C0
:102D1000D81308600420FFF7EDFF4FF08070C86003
:102D20001A200861022000F02EF8042000F031F88B
:102D30000020086348638863C863084603F07BFB90
:102D400008B100F016FA0220FFF7D0FFDFF89C036D
:102D50000590DFF89C03069041F2883202A9DFF863
:102D6000880303F03EFC08B100F003FA0020009055
:102D700001906946DFF8700303F098FF08B100F096
:102D8000F8F909B000BD486100208861C861086297
:102D900070474862002088624FF08050C8627047D8
:102DA0001822002102A800F0E6B9E0B500F0DCF935
:102DB000D048D14908604FF48000FFF79BFF032003
:102DC000C8600020086148614FF0005000F0A4F88E
:102DD0000720C8624FF08040486300208863C863C2
:102DE0008864C864086548658865C86508660846DB
:102DF00003F09EFF08B100F0BCF9002000904FF0F6
:102E000080500190002002906946BB4804F054F8BD
:102E100008B100F0AEF907BD80B5B848B84900F078
:102E200033F808B100F0A5F90021B54802F0AFF879
:102E300008B100F09EF90021B14802F0B8F808B1DD
:102E400000F097F9AE4802F07FF800B1D3E601BD7B
:102E500080B5AC48974900F017F808B100F089F93F
:102E60000021944802F093F808B100F082F90021A3
:102E7000904802F09CF808B100F07BF98D4802F010
:102E800063F800B1B7E601BD08604FF4E130486077
:102E900000208860C86008610C20486100208861BB
:102EA000C861086248628862084604F027B880B5A5
:102EB00086B0182200F059F94FF40000FDF7C2F96E
:102EC0000120FDF7B7F90220FDF7B4F900F00AF888
:102ED0008D4804F09BFE00F005F88C4804F096FE47
:102EE00007B000BD4FF40040009003200190002087
:102EF00004906946704780B5854886490860062079
:102F00004860022000F008F80863C862084604F030
:102F1000C1FE00B16FE601BD88610020C861086292
:102F200048628862704780B586B0142200F01DF9AF
:102F30007948006840F0400077490860086800F070
:102F4000400000F0F7F840F004000860086800F066
:102F5000040000F0EFF840F001000860086800F09D
:102F6000010000F0E7F840F480700860086800F4A1
:102F7000807000F0DFF840F002000860086800F0A0
:102F8000020000F0D7F840F080000860086800F008
:102F9000800000F0CFF840F008000860086800F0FA
:102FA000080000F0C7F840F010000860086800F062
:102FB000100000F0BFF840F020000860086800F042
:102FC00020000590059800222021504801F0ECFCDB
:102FD0000022C221FDF759FC002240214F4801F098
:102FE000E3FC00224FF408414D4801F0DDFC48F2BB
:102FF000240000F0B3F8494801F0FAFB082000F083
:10300000ADF8484801F0F4FB202000F09FF83F485D
:1030100001F0EEFB4FF4005000F0A0F8424801F040
:10302000E7FBC22000F092F83E4801F0E1FB4FF4CC
:1030300080600090022000F081F800F02DF8402020
:1030400000F084F8354801F0D3FB4FF4CC4000F099
:1030500085F8364801F0CCFB4FF4106000F07EF8A4
:10306000334801F0C5FB4FF4804000F077F800F0E2
:1030700013F84FF4084000F069F800F00DF8022052
:10308000009000F05BF8214801F0B2FB01228021A2
:10309000FDF7FBFB07B000BD214801F0A9BB000014
:1030A00018050020900A00201B050020840D002038
:1030B00000090020780C00208040024668100020A3
:1030C000080D002000540040D00F002000580040A0
:1030D0001C100020EC9D903000140D42E80D0020E3
:1030E0000100000100240D42440E002002000100F6
:1030F0000200000100380040580B0020004C004046
:10310000E80B0020003801400000024200040242A7
:10311000000004420C0000208C0C02460018024201
:1031200000140242001C024200080242000C02424B
:103130000010024205900598086870470190002031
:103140000290039006200490694670470090012089
:103150000190002002900390694670470090002083
:1031600001900290694670470C220021684600F0E9
:1031700002B872B6FEE710B5044610460A4601468C
:10318000204604F01DFE204610BD0EE00268436894
:10319000024408305FEAC37C44BF4B445B1E52F8D4
:1031A00004CB43F804CB091FF9D150F8041B0029C4
:1031B000ECD1704710B5040001D1012010BD94F886
:1031C0003D0018B900F07CF901F05EF950E090F88C
:1031D0003D10012901D001207047022180F83D10E7
:1031E0000168DFF8D02091421CBFDFF8CC2091426B
:1031F0002DD0B1F1804F18BFB1F1A04F27D0DFF82B
:10320000BC2091421CBFDFF8B82091421FD0DFF8EC
:10321000B42091421CBFDFF8B020914217D0DFF8F4
:10322000AC2091421CBFDFF8A82091420FD0DFF8FC
:10323000A42091421CBFDFF8A020914207D0DFF804
:103240009C2091421CBFDFF89820914209D18A68E6
:10325000DFF8E0110A40062A18BFB2F5803F05D01A
:103260000168096841F001010068016000207047B1
:10327000022084F83D00211D206800F0F0FA0120B2
:1032800084F8480084F83E0084F83F0084F8400049
:1032900084F8410084F8420084F8430084F8440034
:1032A00084F8450084F8460084F8470084F83D001F
:1032B000002010BD002C0140002C015000040040F3
:1032C000000400500008004000080050000C0040BE
:1032D000000C005000340140003401500040014017
:1032E0000040015010B5040001D1012010BD94F838
:1032F0003D0018B900F0E4F801F084F8B8E710B523
:10330000044611B994F83E0014E0042908BF94F86B
:103310003F000FD0082908BF94F840000AD00C29BC
:1033200008BF94F8410005D010290CBF94F8420062
:1033300094F84300012801D0012010BD11B900F01C
:1033400083F816E0042902D100F07AF811E0082988
:1033500002D100F071F80CE00C2902D100F0A2F8C3
:1033600007E0102907BF022084F84200022084F8F9
:10337000430000F0CBF800F0A7F81CBFDFF83C11C9
:10338000884219D000F096F81CBFDFF84811884237
:1033900012D000F08BF81CBFDFF83C1188420BD034
:1033A00000F062F81CBF2A49884205D000F058F8A6
:1033B0001CBF2F49884201D100F04CF800F084F87E
:1033C0001CBFDFF8F810884228D0B0F1804F18BF3A
:1033D000B0F1A04F22D000F05BF81CBFDFF8FC106A
:1033E00088421BD000F050F81CBFDFF8F410884270
:1033F00014D000F045F81CBFDFF8E81088420DD06B
:1034000000F058F81CBFDFF8CC10884206D000F05E
:103410004DF81CBFDFF8C010884206D100F02AF832
:1034200018BFB1F5803F02D0206800F035F80020C9
:1034300010BD000007000100022084F84000704722
:10344000022084F83F007047022084F83E00704755
:1034500000440150406C40F40040216848647047CB
:10346000DFF8841088427047DFF880108842704788
:10347000004801508168DFF8780001400629704754
:10348000DFF8701088427047DFF86C108842704790
:10349000DFF8681088427047006840F0010021683A
:1034A00008607047022084F841007047DFF8501030
:1034B00088427047DFF84C1088427047002C01505A
:1034C00084F83C00204670472068DFF848108842A6
:1034D00070470000003401500040015000040050CB
:1034E00000080050000C005000480140004401401A
:1034F00007000100000C00400008004000040040EC
:1035000000400140003401402268D0600122206860
:1035100000F074BC002C014010B50446206800691E
:10352000800718D52068C068800714D56FF00200A6
:1035300021680861012020772068806910F0030F5E
:10354000204602D004F045FC03E004F043FC00F008
:10355000DEF80020207720680069400718D5206831
:10356000C068400714D56FF004002168086102208C
:1035700020772068806910F4407F204602D004F054
:1035800028FC03E004F026FC00F0C1F800202077BE
:1035900020680069000718D52068C068000714D5A6
:1035A0006FF0080021680861042020772068C06956
:1035B00010F0030F204602D004F00BFC03E004F0EF
:1035C00009FC00F0A4F80020207720680069C006FC
:1035D00018D52068C068C00614D56FF010002168A7
:1035E0000861082020772068C06910F4407F2046D9
:1035F00002D004F0EEFB03E004F0ECFB00F087F8EF
:103600000020207720680069C00709D52068C068BD
:10361000C00705D56FF0010000F075F804F0DBFB82
:1036200020680069000609D52068C068000605D535
:103630006FF0800000F067F804F0CEFB20680069AE
:10364000C00509D52068C068000605D56FF48070F4
:1036500000F059F804F0C1FB20680069400609D564
:103660002068C068400605D56FF0400000F04BF8B8
:1036700004F0B4FB20680069800609D52068C068A2
:10368000800605D56FF0200000F03DF804F0A7FBA0
:1036900020680069C00209D52068C068C00205D54D
:1036A0006FF4801000F02FF804F09AFB2068006996
:1036B000800209D52068C068800205D56FF400102B
:1036C00000F021F804F08DFB20680069400209D564
:1036D0002068C068400205D56FF4800000F013F840
:1036E00004F080FB2068006900020BD52068C068E8
:1036F000000207D56FF4000000F005F8BDE81040A7
:1037000004F071BB10BD2168086120467047204657
:1037100004F06ABB70B500F09BF801D1022070BDC7
:10372000012084F83C0052B1042A1CD0082A2BD076
:103730000C2A3DD0102A4CD0142A5ED06EE02068AE
:1037400000F03EF92068806940F0080000F07BF846
:1037500020F0040021688861206881693069014394
:10376000206881615BE0206800F090F92068806942
:1037700040F4006000F067F820F4806000F063F827
:1037800000F052F888614AE0206800F0DBF9206818
:10379000C06940F0080000F051F820F004002168F2
:1037A000C8612068C169306901432068C16136E0A1
:1037B000206800F023FA2068C06940F4006000F03F
:1037C0003DF820F4806000F039F800F02DF8C86171
:1037D00025E0206800F072FA2068006D40F00800D3
:1037E00000F027F820F00400216808652068016DCA
:1037F000306901432068016511E0206800F09EFAFD
:103800002068006D40F4006000F013F820F4806040
:1038100000F00FF800F008F8086500E0012500202E
:1038200084F83C00284670BD316940EA01202168D7
:103830007047216808652068006D70472168C8617D
:103840002068C06970472168886120688069704776
:1038500004460E46002594F83C0001287047036892
:10386000DFF8482590421CBFDFF84425904225D060
:10387000B0F1804F18BFB0F1A04F1FD0DFF8342552
:1038800090421CBFDFF83025904217D0DFF82C257E
:1038900090421CBFDFF8282590420FD0DFF8242586
:1038A00090421CBFDFF82025904207D0DFF81C258E
:1038B00090421CBFDFF8182590422CD123F07003F2
:1038C0004A681343DFF8E42490421CBFDFF8E02489
:1038D00090423BD0B0F1804F18BFB0F1A04F35D02F
:1038E000DFF8D02490421CBFDFF8CC2490422DD0CA
:1038F000DFF8C82490421CBFDFF8C424904225D0D2
:10390000DFF8C02490421FBFDFF8BC249042DFF8EC
:10391000BC2490421AD0DFF8B82490421CBFDFF8D4
:10392000B424904212D0DFF8B02490421CBFDFF8DC
:10393000AC2490420AD0DFF8A82490421FBFDFF8E1
:10394000A4249042DFF8A024904203D123F44073D2
:10395000CA68134323F080034A69134303608A68EB
:10396000C2620A688262DFF8442490421CBFDFF81A
:10397000402490421FD0DFF8542490421CBFDFF84F
:103980005024904217D0DFF84C2490421CBFDFF83F
:10399000482490420FD0DFF8442490421CBFDFF847
:1039A0004024904207D0DFF83C2490421CBFDFF84F
:1039B0003824904201D109690163012141617047B6
:1039C00030B5026A5208520000F071F9846900F0C3
:1039D0000EF925F002058A68154300F06CF91CBF4A
:1039E000DFF8CC2390421CD000F05DF91CBFDFF85B
:1039F000E023904215D000F09EF91CBFDFF8D823D9
:103A000090420ED000F094F91CBFDFF8D42390420E
:103A100007D0DFF8D02390421CBFDFF8CC239042C0
:103A200024D125F00805CA68154325F0040500F0E7
:103A300042F91CBFDFF8782390421BD000F033F925
:103A40001CBFDFF88C23904214D000F074F91CBF27
:103A5000DFF8842390420DD000F06AF91FBFDFF831
:103A600080239042DFF87C23904203D0DFF8782354
:103A7000904205D123F440734A6913438A69134382
:103A80004360846149684163056230BD70B5026A74
:103A900022F0100200F00BF9846900F04CF825F0D8
:103AA00020058A6845EA021500F005F91CBFDFF819
:103AB0000023904206D000F0F6F81CBFDFF8102378
:103AC000904210D125F08005CA6845EA021525F01C
:103AD000400500F0F0F81FBFDFF8D4229042DFF875
:103AE000EC2290421AD0DFF8E82290421CBFDFF8A7
:103AF000E422904212D0DFF8E02290421CBFDFF8AF
:103B0000DC2290420AD0DFF8D82290421FBFDFF8B3
:103B1000D4229042DFF8D022904206D123F44063B1
:103B20004E698A69164343EA8603436084614968A3
:103B30008163056270BDDFF8B42214400A6844EA6C
:103B40000224704770B5026A22F4807200F0AFF868
:103B5000C46900F04CF825F400758A6845EA02252E
:103B600000F0A9F81CBFDFF84822904206D000F010
:103B70009AF81CBFDFF85822904210D125F4006556
:103B8000CA6845EA022525F4806500F094F81FBF55
:103B9000DFF81C229042DFF8342290421AD0DFF87E
:103BA000302290421CBFDFF82C22904212D0DFF866
:103BB000282290421CBFDFF8242290420AD0DFF86E
:103BC000202290421FBFDFF81C229042DFF818220B
:103BD000904206D123F440534E698A69164343EA62
:103BE00006134360C4614968C163056270BDDFF8B4
:103BF000002214400A6814437047000070B5026A3E
:103C000022F4805200F053F8C469FFF794FF25F4C2
:103C100000558A6845EA023500F04DF81CBFDFF810
:103C20009021904206D000F03EF81CBFDFF8A021A2
:103C3000904210D125F40045CA6845EA023525F4C2
:103C4000804500F038F81FBFDFF864219042DFF8AC
:103C50007C2190421AD0DFF8782190421CBFDFF817
:103C60007421904212D0DFF8702190421CBFDFF81F
:103C70006C2190420AD0DFF8682190421FBFDFF824
:103C800064219042DFF86021904206D123F4404342
:103C90004E698A69164343EA86134360C4614968E2
:103CA0000164056270BDDFF8242190427047026212
:103CB000056A436870473D4A9042704730B5026AD2
:103CC00022F48032FFF7F3FF046DDFF8282114405F
:103CD0000A68144325F400358A6845EA0245FFF76F
:103CE000EAFF1CBF324A904217D0FFF7DCFF1CBF2F
:103CF000374A904211D000F01EF81CBF364A90425D
:103D00000BD000F015F81CBF354A904205D0354A5B
:103D100090421CBF344A904204D123F480334A6954
:103D200043EA02234360046549688164056230BD4B
:103D30002A4A90427047274A9042704730B5026A3B
:103D400022F48012FFF7B3FF046D2B4AFFF7F5FE54
:103D500025F400158A6845EA0255FFF7ACFF1CBF41
:103D6000134A904217D0FFF79EFF1CBF184A90429B
:103D700011D0FFF7E0FF1CBF174A90420BD0FFF7AE
:103D8000D7FF1CBF164A904205D0164A90421CBF6E
:103D9000154A904204D123F480234A6943EA8223DE
:103DA000436004654968C164056230BD002C014070
:103DB000002C0150000400400004005000080040A6
:103DC00000080050000C0040000C0050003401407E
:103DD00000340150004001400040015000440140C7
:103DE000004401500048014000480150FF8CFFFE94
:103DF0008CFFFEFF8FFFFEFFFF8FFFFE30B5046AD2
:103E0000012501F01F039D40AC430462036A01F0E9
:103E10001F0102FA01F11943016230BD0268D1604D
:103E2000002180F83C10002010BD30B590F83C20F7
:103E3000012A01D1022030BD012280F83C2002225B
:103E400080F83D20026853689468DFF8B851AA42B0
:103E50001EBF0268DFF89451AA4207D0DFF8A851CC
:103E6000AA421CBFDFF89451AA4203D123F4700385
:103E70004A681343DFF8942113400A681343026829
:103E800053600268DFF87C319A421CBFDFF85C3176
:103E90009A422DD0B2F1804F18BFB2F1A04F27D077
:103EA000DFF86C319A421CBFDFF844319A421FD0D0
:103EB000DFF860319A421CBFDFF838319A4217D0E0
:103EC000DFF854319A421CBFDFF82C319A420FD0F0
:103ED000DFF834319A421CBFDFF820319A4207D014
:103EE000DFF838319A421CBFDFF814319A4204D10E
:103EF00024F0800489680C439460012180F83D100F
:103F0000002180F83C10002030BD10B590F83C2016
:103F1000012A01D1022010BD012280F83C20CB688B
:103F200023F440738A68134323F480634A6813437D
:103F300023F400630A68134323F480530A6913438C
:103F400023F400534A69134323F480430A6B134359
:103F500023F470238A6943EA024300F041F81EBF4C
:103F60000268DFF88840A24207D0DFF89C40A242F6
:103F70001CBFDFF88840A2420CD123F08053CA69ED
:103F800000F02DF81FBFDFF86440A242DFF8784050
:103F9000A24203D0DFF86440A2421ED123F4700392
:103FA0008A6A43EA025323F080730A6A134323F0B8
:103FB00000734A6A00F013F81CBFDFF83040A242D9
:103FC00007D0DFF84440A2421CBFDFF83040A242D5
:103FD00003D123F00053C96A0B43536420E7134312
:103FE0000268DFF82040A24270470000002C015018
:103FF0000004005000080050000C00500034015034
:1040000000400150002C0140003401408FFFFFFDB3
:104010000004004000080040000C00400040014047
:1040200081B0DFF82407006840F00400DFF81817BB
:104030000860086800F004000090009801B0704724
:1040400010B5B8B000F07AFB00F0CDF92068DFF8C9
:10405000FC1688422AD14FF4003000F0C0F92991B3
:1040600000F00EFB08B1FFF784F800F064FB40F4A9
:104070008060DFF8D4160860086800F48060009063
:10408000009800F092F940F01000DFF8C41600F03C
:104090002CF9009000984FF4C06000F03EFB032024
:1040A000059001A9DFF8AC0600F0A2FB38B010BD06
:1040B00010B5B8B000F09CF900F095F92068DFF871
:1040C000981688421BD1402000F089F9209100F019
:1040D000D7FA08B1FFF74DF800F038FA4FF4407006
:1040E00000F033F8DFF8740600F082FB00F086F988
:1040F00040F4001000F0C3F900F4001021E0DFF8F4
:10410000601688421FD1802000F069F9219100F0EB
:10411000B7FA08B1FFF72DF800F047F940F080003A
:10412000DFF82C1600F0DAF8302000F00EF800F07E
:10413000B1F800F063F940F4800000F0A0F900F459
:1041400080000090009838B010BD009012200190BF
:10415000002002900390042004906946704710B537
:10416000B8B000F045F900F03EF92068DFF8F81526
:1041700088425BD100F07EFA08B1FEF7FAFF00F04A
:10418000D6F840F01000DFF8E41500F0AEF800F0CB
:10419000BDF840F0100000F0A8F8059005980868F8
:1041A00040F008000860086800F0080000F0A2F87D
:1041B000086840F0800000F091F8086840F00400C2
:1041C0000860086800F0040000F0FDF8012000F02D
:1041D00065F8DFF89C0500F00BFB082000F05EF8A6
:1041E000DFF8700500F004FB802000F06CF8DFF8C9
:1041F000840500F0FDFA4FF4707000F064F8DFF809
:10420000780500F0F5FA042000F048F800F042F8D4
:10421000082000F058F8DFF8640500F0E9FA4FF4E0
:10422000406000F050F8DFF834052FE0DFF850155B
:1042300088422DD100F01EFA08B1FEF79AFF00F077
:1042400076F840F48070DFF824150860086800F400
:10425000807000F05BF840F080000860086800F0B3
:10426000800000F047F8202000F022F8DFF8000579
:1042700000F0BEFA4FF4F05000F01AF800F00AF81F
:1042800041F21F0000F014F8DFF8EC0400F0B0FA7F
:1042900038B010BDDFF8CC0400F0AABA00900220BC
:1042A000019000200290032003900490694670471B
:1042B000009002200190002002900320039005202E
:1042C00004906946704700900220019000200290FF
:1042D000032003900A20049069467047086008682C
:1042E00000F080000590059870470860086800F0AD
:1042F0001000704705900598086840F0200008609D
:10430000086800F020000590059870470590059812
:10431000DFF83C04006840F48070DFF83414086073
:10432000086800F480700590059808687047DFF809
:104330003C040068704710B5B8B000F059F800F0C0
:1043400052F82068DFF83C1488422CD14FF080707E
:1043500000F045F84FF48030349000F091F908B146
:10436000FEF707FF00F04AF840F48040DFF8181429
:1043700000F06DF900F019F840F0080000F063F962
:1043800000F0080000F01FF81A2000F012F8DFF823
:10439000E40300F02DFA4FF4805000F00AF8DFF843
:1043A000BC0300F025FA38B010BDDFF8A4030068A4
:1043B0007047009002200190002002900390052099
:1043C00004906946704705900598086840F002001F
:1043D0000860086800F00200059005987047002109
:1043E000CDE906017047C822002106A8FEF7C3BE2A
:1043F0000446142200216846FEF7BDBEDFF888039C
:104400000068704780B50168DFF88023914212D1BF
:1044100000F00FF940F40060DFF8741308600868DA
:1044200000F4006000900098002200212C2003F08E
:104430003FFD2C2021E0DFF85C2391420AD1FFF7F9
:10444000DDFF40F0020000F01AF800F002000090DA
:10445000009801BD0846DFF8401388420ED1FFF7EF
:10446000CDFF40F00400DFF8201300F05DF90022DA
:1044700000212F2003F01CFD2F201EE001BDDFF8DE
:1044800008130860086870470068DFF81013884256
:1044900000D0704780B500F0CCF840F40030DFF871
:1044A000F0120860086800F40030009000980022C4
:1044B0000021462003F0FCFC4620BDE8024003F04A
:1044C00006BD10B586B0FFF793FF2068DFF8BC1279
:1044D00088420BD100F0C2F84FF4807000F0ACF8C5
:1044E000012004906946DFF8B80223E0DFF8A41247
:1044F000884205D100F036F8202000F01FF816E0C1
:10450000DFF89412884208D100F020F8402000F033
:1045100015F80490694691480CE0DFF88012884253
:104520000AD100F01FF8012000F086F80E20049058
:104530006946884800F05CF906B010BD0090022082
:10454000019000200290039002207047804800688C
:1045500040F002007E490860086800F00200059003
:10456000059870477A48006840F010007849086064
:10457000086800F0100005900598704710B5B8B0B5
:10458000FFF736FFFFF72FFF20688649884227D1C3
:104590000820FFF724FF1D9100F072F808B1FEF724
:1045A000E8FDFFF72BFF40F40020FFF768FF00F461
:1045B000002005900598FFF7F8FE40F0040000F099
:1045C00042F800F00400059005984FF4406000F0B8
:1045D00033F8082004906946684800F009F926E09D
:1045E0007149884223D10120FFF7F9FE1A9100F0AA
:1045F00047F808B1FEF7BDFD00F01BF840F480401D
:10460000634900F024F800F029F84FF4C06000F08E
:1046100013F8072004906946614800F0E9F8002289
:1046200001213D2003F044FC3D2003F050FC38B054
:1046300010BD57480068704700900220019000208C
:10464000029003907047424908600868704708600C
:10465000086800F480400590059870473C48006861
:1046600040F001003A490860086800F00100059038
:10467000059870474FF080600021CDE90601329126
:1046800006A803F037BC10B5B8B000F057F8FFF734
:10469000AAFE2068454988423DD14FF48010FFF7BB
:1046A0009EFE2E91FFF7ECFF08B1FEF762FDFFF7CB
:1046B0007CFE40F00100FFF7C6FF00F00100009013
:1046C00000984FF4C05000F028F80A20059001A986
:1046D000334800F08DF8FFF768FE40F48040FFF7A4
:1046E000B2FF00F480400090009800F024F84007EA
:1046F0000FD400F020F840F00400134900F014F843
:1047000000F080FD00F017F820F004000E4908606A
:1047100001E000F077FD38B010BD0190022002905A
:1047200000200390049070470860086800F00400BF
:1047300000900098704704480068704704461422AF
:10474000002101A8FEF717BD940C024680400246E6
:104750008C0C024600100242005400400004024249
:1047600000580040001C024200140D42900C02460A
:1047700000200242000C02420014024200080242E1
:1047800000240D42003800409C0C0246002C0140E1
:10479000A40C024600040040000800400044014010
:1047A00000000242004C004000380140000004427A
:1047B00038B5044604F06CFC054614F1010F02D034
:1047C00004480078041904F063FC401BA042FAD3AB
:1047D00031BD00BF080000204AB1000011F8013BC4
:1047E000521E00F8013B1CBF11F8013BF8E770476F
:1047F000F0B500F0DEF886E04E68022E18BF122EEB
:104800001DD1DE0802EB8606DF0802EB87073F6A50
:104810004FF00F0C4FEA830E0EF01C0E0CFA0EFC3C
:1048200027EA0C0791F810C00CF00F0C4FEA830E2A
:104830000EF01C0E0CFA0EFC4CEA0707376200F073
:10484000A5F80F7907F0030707FA0CF73E43266037
:104850004E68012E18BF022E03D0112E18BF122E43
:1048600011D1A66800F093F8CF6807FA0CF73E4321
:10487000A66066680127AF40BE434F68C7F30017C4
:10488000AF403E4366604E68032E07D0E66800F0F6
:104890007EF88F686D00AF403E43E6604D68ED00E6
:1048A00030D5464D9E0855F8265000F077F8B543B0
:1048B000434E06EA922600F072F835433F4E9F08B9
:1048C00046F827503F4D00F05DF8F60248BF05431B
:1048D0003C4E35603C4D00F055F8B60248BF0543EC
:1048E000394E3560394D00F04DF8B60348BF0543E9
:1048F000364E3560364D00F045F8F60348BF0543A7
:10490000334805605B1C0868D8403AD00868012528
:104910009D4028401D46F5D02E4EB2427FF46CAF2C
:10492000346801259D40AC430D7905F001059D409B
:104930002C433460284C54F83340274D05EBC30515
:104940006D68EE0804EB8606366AEF0804EB87070D
:104950004FF00F0C4FEA850E0EF01C0E0CFA0EFCF9
:1049600026EA0C064FF00B0C4FEA850E0EF01C0EDB
:104970000CFA0EFC4CEA06063E6200F007F802272D
:1049800062E7F0BD2D6885434E68704726680327AF
:104990004FEA450C07FA0CF7BE4370470F26DF00BD
:1049A00007F01807BE4070470AB181617047816205
:1049B00070470246002314467047000060200246FC
:1049C0007F7F2F00002002460420024684200246FA
:1049D000802002460000024648A9000800F10103B9
:1049E00010F8011B11B110F8011BFBE7C01A70474A
:1049F00001B55AB111F8013B521E00F8013B03B159
:104A0000F8D111001CBF002203F0DAF901BD04E067
:104A100010F8013B6BB1491C521E52B10B7890F853
:104A200000C09C45F4D002D24FF0FF307047012007
:104A30007047002070470000C0F3C75181B1FF29C3
:104A400006D0C110400721F0E04101F160517047EC
:104A500041020CBF40F4E0016FF0004100207047BC
:104A600000F0004100020AD0B0FA80FC00FA0CF01D
:104A700001F16051A1EB0C5101EBD02140057047D1
:104A800041EC100B01BD80B553EC112B51EC100B18
:104A900004F004FBF4E7000030B540F2FF7C1CEAB0
:104AA00011541DBF1CEA1355644565453FE0641968
:104AB00081EA030C6FF35F530CF0004C43F4801356
:104AC000C90241F0004141EA505EC5021100A5FB58
:104AD000020200284FF00000EEFB01204FF0000121
:104AE000E3FB052118BF42F00102401800214941B3
:104AF000E3FB0E01A4F580640D0302D2921840413D
:104B0000494154F1010470DD450872F1004250F151
:104B1000000051EB0451A1F5801102D441EA0C01CF
:104B200030BD40F2FF7E4CEA0E51002030BD0CEA51
:104B30001355644518BF654581EA030C0CF0004C21
:104B400041D050EA410E1CBF52EA430E02E06146DA
:104B5000002030BD24422C441BD15FEA050EF6D064
:104B6000090302BF01460020AEF1140EB1FA81F52F
:104B7000AEEB050401FA05FE0C35C5F1200100FA83
:104B800005F5C8404EEA000E6FF35F5343F48013FF
:104B90009CE733F00043B3FA83F504BFB2FA82FE18
:104BA00075440B3D641BB5F1200E2FBF02FA0EF3C6
:104BB000AB40C5F1200E22FA0EFE38BF43EA0E03C9
:104BC000AA40641C7CE750EA410E14BF52EA430E2F
:104BD0006FF000014FF4001515EB430F8EBF19461F
:104BE00015EB410F9DE7B4D830BDD4F10104B4F109
:104BF00020050FDAC4F12005520828BF42F0010257
:104C000010FA05FE01FA05F57244E2BFE0402843C0
:104C1000E1400FE0352C9ADCC5F1200452EA400255
:104C200020FA05F218BF42F0010231FA05F0A14066
:104C30000A43002172F1004250F1000051EB0C01D7
:104C400030BD000001F000428B1AA3F16051B1F5B4
:104C5000801F0ADBB1F17F6F1FD242EAC102C1009F
:104C600071F1004142EB507070470B15C3F109031D
:104C7000212B10D2890241EA90518002012849413A
:104C800041F0004121FA03F0C3F12003994071F192
:104C9000004150417047100070476FF0000013EB67
:104CA000103F5CBF000E42EAC050704770B5040070
:104CB000154608BF2C680E46204604F023FD044428
:104CC000207810B907A1296070BD3146204604F054
:104CD0002AFD2118087810B1002201F8012B296063
:104CE000204670BD0000000070B491EA030F4FF041
:104CF000004540F1BF806B40841A71EB030604D27B
:104D00006E40001BB141121973414FF4001C1CEBA3
:104D1000410F34BF7CEB430683E00C0DA4EB13562C
:104D2000362E00F37C80012E45EAC32341DC43EAA2
:104D3000525312BFD20292025B08240545EAC121F8
:104D400041EA5051D2EBC020994125D407D1B0FAA5
:104D500080F610FA06F162D00020203608E0B1FAA1
:104D600081F6B140C6F1200220FA02F21143B040B0
:104D70004FEAF474B4EB465434F001064FEA74047D
:104D80000AD8D6F50016760D04F00044F04061FA1A
:104D900006F25040F1404840C00A40EA415021F03C
:104DA000004128BF5FEA500550F1000044EBD121DB
:104DB00035E0DB0A45EAC121C90AB6F120050EDD5E
:104DC00042EA0242120CC5F1200603FA06F6EB4055
:104DD00042EA06056D42984161F100010DE062FA78
:104DE00006F5F240554063FA06FC82EA0C02F340F5
:104DF0005A406D42904161EB030111F4801F05D1CF
:104E0000641E620502D06D004041494121F48011C9
:104E1000430875F1004350F1000041EB045170BCB0
:104E200070471CEB410F15D223F0004352EA4306B2
:104E30000BD04FEA4C0CBCEB410F04D80C0D661E96
:104E4000342EB7DDEBE7801A994150EA410608BFDE
:104E50000021E4E708BF1CEB430F28BF6FF00001FF
:104E6000DDE7000070B491EA030F4FF000457FF5D5
:104E700043AF6B40841A71EB030603D2001BB141B0
:104E8000121973414FF4001C1CEB410F34BF7CEB33
:104E9000430442E00C0DA4EB1356352E4FDC45EADB
:104EA000C323DB0A45EAC121C912B6F120050DDD95
:104EB00063FA05F6EB4086EA0305124218BF45F097
:104EC0000105C01851F100010CD213E062FA06F599
:104ED000F2405540F3415A40B340F3405A408018E5
:104EE000594107D349085FEA30005FEA350528BF1A
:104EF00045F0010501F58011420875F1004250F1BD
:104F0000000041EB04514E0016F5001F70BC38BF85
:104F100070470020090D090570471CEB410F10D2A6
:104F200052EA43060BD0BCEB410F05D80C0DAB4346
:104F3000661E342EB6DD02E0AB438018594170BCCA
:104F4000704770BC7047000090F88010012901D1B3
:104F500002207047012180F880102421C0F88410BD
:104F600001680968026812685208520003681A60F2
:104F70000022426621F00051FFE702681160202103
:104F8000C0F88410002180F880100020704738B5E8
:104F900000F008F801D1022032BD00F024F820F022
:104FA00060400EE0044694F880000128704738B550
:104FB000FFF7F8FF01D1022032BD00F014F820F015
:104FC0006060014320688160204600F04EF8206850
:104FD000056000F001F832BD2020C4F884000020F4
:104FE00084F880007047012084F880002420C4F8F1
:104FF000840020680568006840084000226810604E
:1050000020688068704710B50446D4F888002028CE
:105010000DD109B1100001D1012010BD94F880001C
:10502000012804D000F005F802F0DCFA07E00220C5
:1050300010BD012084F88000E06620467047010022
:1050400011D1E06E01280DD1102022681062206875
:1050500050E8002F034642F0100243E800200028E9
:10506000F5D100E00121084610BD10B5416E11B91F
:105070000121012213E001688A68520E02F0070242
:105080008968490F084B5B5CDB00084C615C93FB53
:10509000F1F1054B9B5CDB00A25C93FBF2F2A0F804
:1050A0006A10A0F8682010BDC4AB0008CCAB0008A3
:1050B00080B50F48006840F480700D4908600320F7
:1050C00002F0F5FE00F06EFE0A490B4A126802F08B
:1050D0000F02895CC84009490860002004F034FBD5
:1050E00008B1012002BDFEF79BFF002002BD0000B9
:1050F0000020024098AB0008200C0246040000206B
:10510000DFF82411096801F4403181423CD0B0F14C
:10511000011FDFF81011096821F4E02126BF0843C0
:1051200040F480200843DFF8FC100860DFF8FC0042
:1051300000684FF47A71B0FBF1F1322041434FF433
:105140007A70B1FBF0F0401C01E0F8B1401EDFF8CE
:10515000D41009680904F8D5C0B1DFF8D0000068A0
:105160004FF47A71B0FBF1F1322041434FF47A7081
:10517000B1FBF0F0401C01E040B1401EDFF8A81088
:1051800009680904F8D508B100207047032070476A
:10519000DFF89400006800F440307047DFF88C10AE
:1051A00009684FF47A72B1FBF2F232214A434FF4AC
:1051B0007A71B2FBF1F1491C0028DFF87400006835
:1051C0000ED120F00200DFF868201060DFF85800F0
:1051D0000068800711D5002918BF491EF6D10FE0DD
:1051E00040F00200DFF84820106001E041B1491EA4
:1051F000DFF8340000688007F8D509B10020704757
:1052000003207047DFF82C00006840F08050FFE773
:10521000DFF8201008607047DFF81800006840F0E1
:105220000050F5E70C0802463C0802460400002046
:1052300008080246100802462DE9FC4105004FF01F
:10524000000800F09A83DFF86008046804F00C049A
:10525000DFF8440B076807F003072878C0066AD513
:105260001CB10C2C08BF012F4DD100F0C2FB02D5A0
:10527000E86900286DD000F0ABFB000202D500F019
:10528000A7FB03E0DFF8C40A0068000400F07040E8
:10529000696A884216D224B9084600F04FFE0028F9
:1052A00025D100F0EDFB02D300F07BFB21E0B0F153
:1052B000004F02D300F0BAFB01E000F0CFFB00F09A
:1052C00083FB16E000F0DCFB02D300F06AFB09E090
:1052D000B0F1004F02D300F0A9FB01E000F0BEFBEB
:1052E00000F072FB2CB9686A00F028FE002840F03C
:1052F000448300F0E7FDDFF8A40A006804F024FA14
:10530000010018D006E3E86900F065FB71D040F0B9
:10531000010000F076FB064600F06BFB06D403F0BC
:10532000B7FE801B0328F7D30320F3E200F0A8FBAD
:1053300045D300F036FB2878C0070CD5082C03D0E5
:105340000C2C08BF032F62D100F0D1FC03D5686894
:10535000002800F012832878800717D5042C04D089
:105360000C2C08BF022F40F09C8000F038FB02D5C7
:10537000E8680028EDD0DFF8280A006820F4F8106B
:10538000296940EA0140DFF8181A08602878000708
:1053900040F1FC8000F096FC01D400F050FB00F0DE
:1053A000FBFA04D400F038FB074600F0F5FA00F1F0
:1053B0009A8003F06DFEC01B0328F6D3B4E7B0F16A
:1053C000004F04D300F032FB00F0FEFAB3E7B0F177
:1053D000804FDFF8540B006805D320F4F840296AA9
:1053E00040EA8120F0E720F47820296A40EAC130C1
:1053F000EAE74008400000F004FB064600F0F9FA36
:1054000099D503F045FE801B0328F7D38CE7686825
:10541000B0F5803F06D100F0DFFA40F48030DFF8CD
:10542000881821E0B0F5A02F06D100F0D5FA00F0E1
:10543000DAFA20F4801008E0B0F5A81F00F0CCFAEA
:1054400008D100F0D0FA40F480100860086840F4F9
:10545000803009E020F4803000F0C7FA20F480208A
:105460000860086820F480100860686860B103F084
:105470000FFE064600F03BFC3FF56DAF03F008FE63
:10548000801B6528F6D34FE703F002FE064600F0C6
:105490002EFC7FF560AF03F0FBFD801B6528F6D383
:1054A00042E7E86800F097FA0ED040F4807000F010
:1054B000A8FA044600F093FA3FF55DAF03F0E8FD6B
:1054C000001B0328F6D32FE720F4807000F099FA30
:1054D000044600F084FA7FF559AF03F0D9FD001BB4
:1054E0000328F6D320E76869002800F04CFA3AD088
:1054F000A96900F08052914223D000F04061B1F1DF
:10550000006F00F03A82400111D500F03CFA20F023
:10551000A050DFF81C1A00F075FA074600F037FAC1
:1055200005D503F0B5FDC01B0328F7D3FCE6DFF873
:10553000000A016821F08051A8690143DFF8F009F1
:10554000016000F020FA40F08060DFF8E41900F01C
:1055500059FA074600F01BFA15D403F099FDC01B59
:105560000328F7D3E0E620F0A050DFF8C41900F0DC
:1055700049FA074600F00BFA05D503F089FDC01B78
:105580000328F7D3D0E60CB100F0E8FB28784007F9
:1055900079D500F097FB01D400F051FA00F0FCF946
:1055A0000BD400F039FA074600F0F6F905D403F001
:1055B0006FFDC01B0328F7D3B6E6287AC00711D5C4
:1055C000287A400700F0DFF907D540F0040000F02A
:1055D000D6F9086840F001000DE040F00100DFF866
:1055E000501908E000F0CFF94008400000F0C7F97A
:1055F000086820F004000860A86868B303F048FD5C
:10560000074600F0C0F9800705D403F041FD00F023
:1056100069FBF6D388E6287A000600F0B4F90DD5C8
:1056200040F0800000F0ABF900F0ADF9000527D4A0
:1056300003F02EFD00F056FBF6D375E620F0800057
:1056400000F09DF900F09FF9000519D503F020FD49
:1056500000F048FBF6D367E603F01AFD074600F0BA
:1056600092F9800705D503F013FD00F03BFBF6D35C
:105670005AE600F088F9000602D500F084F9DDE76B
:105680000CB100F06BFB2878800621D5E86A00F0A9
:10569000A2F90ED040F4805000F0B3F9044600F0B7
:1056A0009BF9800414D403F0F3FC001B0328F6D309
:1056B0003AE620F4805000F0A4F9044600F08CF99A
:1056C000800405D503F0E4FC001B0328F6D32BE689
:1056D0002878000621D5286B00F07DF90ED040F423
:1056E000804000F08EF9044600F076F9000414D4EE
:1056F00003F0CEFC001B0328F6D315E620F480400F
:1057000000F07FF9044600F067F9000405D503F0C6
:10571000BFFC001B0328F6D306E62878400644D5D4
:10572000686B002830D000F053F940F40000DFF837
:1057300090150860096821F07061A86A0143DFF8DC
:1057400080050160686AB0F1404F02D300F029F98A
:1057500009E0B0F1004F02D300F068F901E000F079
:105760007DF900F031F900F037F940F0100000F059
:1057700048F9044600F030F9800616D403F088FC9E
:10578000001B0328F6D3CFE500F026F920F0100027
:1057900000F037F9044600F01FF9800605D503F044
:1057A00077FC001B0328F6D3BEE5A86B002800F0A9
:1057B000B080002400F0CCFA0C2800F0AD80A86B7B
:1057C000022800F022F940F0918003F061FC0746C6
:1057D00000F013F905D503F05BFCC01B0328F7D3D9
:1057E000A2E500F070FA01D400F029F900F064FAA3
:1057F000400348BF4FF0010800F05EFA20F480201B
:10580000DFF8E0170860DFF890050168DFF8D807D7
:105810000140E86B0143286C401E41EA0021686C9E
:105820000143DFF874050160DFF8B0040168DFF8B8
:10583000BC070140A86C401EC0F308000143E86C9F
:10584000401E400200F47E400143286D401E0004CB
:1058500000F4FE000143686D401E000600F0FE40AB
:105860000143DFF87804016000F0A6F820F0100092
:1058700000F0A6F8DFF8680400686FF3CF00E96D68
:1058800040EAC100DFF85814086000F095F840F0D5
:10589000100000F095F8096821F00C01A86D014393
:1058A000DFF8F4040160B8F1000F06D000F004FA4C
:1058B00040F48020DFF82C1708600CB100F04EFA9D
:1058C00000F07AF840F4802000F07AF800F084F8D4
:1058D00040F0807000F095F8044600F08EF818D47F
:1058E00003F0D6FB001B0328F7D31DE503F0D0FB24
:1058F000044600F082F805D503F0CAFB001B03281C
:10590000F7D311E500F058F8DFF8E416084000F08E
:1059100057F80020BDE8F681DFF87C040168DFF865
:10592000BC030068AA6B012A27D001F00302EB6BCD
:105930009A4201BFC1F303222B6C5B1E9A421CD119
:10594000C1F303316A6C914201BFC0F30801AA6C34
:10595000521E914211D1C0F34621EA6C521E91426F
:1059600001BFC0F306412A6D521E914205D1C0F31A
:105970000660696D491E8842CBD00120CAE7DFF876
:10598000B01508607047DFF8A80500687047DFF8B9
:10599000A005006800017047DFF858060068C007DE
:1059A0007047DFF8840501684909286A40EA411117
:1059B000DFF8740501607047DFF8DC0300687047AA
:1059C000DFF8D41308607047DFF85C150860704793
:1059D000BB48006870470028B34800687047B24869
:1059E00000684005704740F48020AF4908600868AF
:1059F0007047AD48006840077047AB4800688001B9
:105A00007047A949086003F043BBA748006820F02D
:105A10008070A54908607047DFF8D805006840F03D
:105A20000100DFF8D015086003F032BBDFF8F8049E
:105A3000006820F47870296A40EA41107047DFF866
:105A4000B805006840F00400DFF8AC15086008688D
:105A500000F004000090009801247047B0F1804FDE
:105A6000DFF8C404006805D320F4F840296A40EA4E
:105A70008120704720F47820296A40EAC1307047BD
:105A8000DFF87805006840F40000DFF87015086062
:105A9000096821F07041686A0143DFF86005016020
:105AA000686AB0F1404F70471C0C0246F8B504001C
:105AB0000E4666D000F05BF9B04202D200F05CF90D
:105AC0005FD12078C00607D5DFF83405006800F004
:105AD0007000616900F02CF9207800070CD5DFF820
